{
  "_format": "hh-sol-artifact-1",
  "contractName": "Verifier",
  "sourceName": "contracts/Verifier.sol",
  "abi": [
    {
      "inputs": [
        {
          "components": [
            {
              "components": [
                {
                  "internalType": "uint256",
                  "name": "X",
                  "type": "uint256"
                },
                {
                  "internalType": "uint256",
                  "name": "Y",
                  "type": "uint256"
                }
              ],
              "internalType": "struct Pairing.G1Point",
              "name": "a",
              "type": "tuple"
            },
            {
              "components": [
                {
                  "internalType": "uint256[2]",
                  "name": "X",
                  "type": "uint256[2]"
                },
                {
                  "internalType": "uint256[2]",
                  "name": "Y",
                  "type": "uint256[2]"
                }
              ],
              "internalType": "struct Pairing.G2Point",
              "name": "b",
              "type": "tuple"
            },
            {
              "components": [
                {
                  "internalType": "uint256",
                  "name": "X",
                  "type": "uint256"
                },
                {
                  "internalType": "uint256",
                  "name": "Y",
                  "type": "uint256"
                }
              ],
              "internalType": "struct Pairing.G1Point",
              "name": "c",
              "type": "tuple"
            }
          ],
          "internalType": "struct Verifier.Proof",
          "name": "proof",
          "type": "tuple"
        },
        {
          "internalType": "uint256[2]",
          "name": "input",
          "type": "uint256[2]"
        }
      ],
      "name": "verifyTx",
      "outputs": [
        {
          "internalType": "bool",
          "name": "r",
          "type": "bool"
        }
      ],
      "stateMutability": "view",
      "type": "function"
    }
  ],
  "bytecode": "0x608060405234801561001057600080fd5b50610f97806100206000396000f3fe608060405234801561001057600080fd5b506004361061002b5760003560e01c806343cd76fc14610030575b600080fd5b61004361003e366004610df8565b610057565b604051901515815260200160405180910390f35b6040805160028082526060820183526000928392919060208301908036833701905050905060005b60028110156100ce5783816002811061009a5761009a610ebd565b60200201518282815181106100b1576100b1610ebd565b6020908102919091010152806100c681610ee9565b91505061007f565b506100d981856100f6565b6000036100ea5760019150506100f0565b60009150505b92915050565b60007f30644e72e131a029b85045b68181585d2833e84879b9709143e1f593f000000181610122610279565b9050806080015151855160016101389190610f02565b1461014257600080fd5b604080518082019091526000808252602082018190525b86518110156101f0578387828151811061017557610175610ebd565b60200260200101511061018757600080fd5b6101dc826101d785608001518460016101a09190610f02565b815181106101b0576101b0610ebd565b60200260200101518a85815181106101ca576101ca610ebd565b602002602001015161068c565b6106ea565b9150806101e881610ee9565b915050610159565b5061021981836080015160008151811061020c5761020c610ebd565b60200260200101516106ea565b905061025d8560000151866020015161023184610740565b85604001516102438a60400151610740565b6060880151885161025390610740565b89602001516107df565b61026d57600193505050506100f0565b50600095945050505050565b610281610c4b565b6040805180820182527f09f598a637422266716597a2204a99cac44aae816230c17413836d78f9e0195481527f19694363b818419612d1b3823b92e3ef756126cf3d34afe49b8885aa2c6466b46020808301919091529083528151608080820184527f09e34c6d0d11a8b7acef88a3f01648573f31dea696427419660a3718d926efbe8285019081527f19854f3cea55e1629537c877ddcca167e0824a0772c4dc79c7289c3f91d8f7dc606080850191909152908352845180860186527f01ab988b08a2ac5565d8200146315f09e4a046f89cf84ed978ead538deb4f4d281527f280daeb0fb6a2e701a0994a25e1de0126d414308dffc609c7a150dcf9637470b818601528385015285840192909252835180820185527f175c72b23a249788b571867aa955b2dcc52c90abd3e66b2bf7650134aa6a73e28186019081527f04dd4bac27fa610a79c3b6d331843c578efcd5057002331f8542a7a5758b5077828501528152845180860186527f2dc521711597bfe808a238be15e34f5ad7a4207c9b3488e9e1fdf2d57f615e3f81527f17a56362f8ffce8aebcdc05d60f86dd85545a72b796f0401eacd93bdceffdbb7818601528185015285850152835180820185527f29e4f6e6eea48b93f99a2307321024fa022a43124ebd2816b06a5e356ba5b0208186019081527f222990fd52c472da5cbe415bcc960806104fb76674f888054795541afd476458828501528152845180860186527f23eb0dd1ab265692fac269afea10c6067c138876e11fcb8fa7bd62a84cd2137a81527f226bf505f70763d3abd309884d8ba95ed76e6a1536bb2f93798558e4d436835a818601528185015291850191909152825160038082529181019093529082015b60408051808201909152600080825260208201528152602001906001900390816104fd57505060808201908152604080518082019091527f2f1341f7f20906e61cf8f5b4618a595428495e149721bb1eb40a62b1db9a5c7481527f25055153c058f7a677f5429df8f73ebd7338f5e47e87afbb3ef272c60bc0ad0660208201529051805160009061059057610590610ebd565b602002602001018190525060405180604001604052807f2deea9dcb98971c15099fe0c53af82c4d6d94d14c3a4b6d9933510744a87b2ae81526020017f264ba39380b4b196d6eb033a264c45bf19642c2187c1c465e86c476f3c58f8d7815250816080015160018151811061060757610607610ebd565b602002602001018190525060405180604001604052807f0707ad0225cbf72bf8b7f7c2a06d1bad1bc6f1fb48ed609a209bfd01c4f9fea181526020017f05a3d722d89807e79aa0f261c818f94b40ad920057e756c3734652671ee7e53e815250816080015160028151811061067e5761067e610ebd565b602002602001018190525090565b60408051808201909152600080825260208201526106a8610c9c565b835181526020808501519082015260408101839052600060608360808460076107d05a03fa905080806106d757fe5b50806106e257600080fd5b505092915050565b6040805180820190915260008082526020820152610706610cba565b8351815260208085015181830152835160408301528301516060808301919091526000908360c08460066107d05a03fa905080806106d757fe5b604080518082019091526000808252602082015281517f30644e72e131a029b85045b68181585d97816a916871ca8d3c208c16d87cfd479015801561078757506020830151155b156107a75750506040805180820190915260008082526020820152919050565b6040518060400160405280846000015181526020018285602001516107cc9190610f15565b6107d69084610f37565b90529392505050565b60408051600480825260a08201909252600091829190816020015b60408051808201909152600080825260208201528152602001906001900390816107fa57505060408051600480825260a0820190925291925060009190602082015b610844610cd8565b81526020019060019003908161083c5790505090508a8260008151811061086d5761086d610ebd565b6020026020010181905250888260018151811061088c5761088c610ebd565b602002602001018190525086826002815181106108ab576108ab610ebd565b602002602001018190525084826003815181106108ca576108ca610ebd565b602002602001018190525089816000815181106108e9576108e9610ebd565b6020026020010181905250878160018151811061090857610908610ebd565b6020026020010181905250858160028151811061092757610927610ebd565b6020026020010181905250838160038151811061094657610946610ebd565b602002602001018190525061095b828261096a565b9b9a5050505050505050505050565b6000815183511461097a57600080fd5b82516000610989826006610f4a565b905060008167ffffffffffffffff8111156109a6576109a6610d39565b6040519080825280602002602001820160405280156109cf578160200160208202803683370190505b50905060005b83811015610c0a578681815181106109ef576109ef610ebd565b60200260200101516000015182826006610a099190610f4a565b610a14906000610f02565b81518110610a2457610a24610ebd565b602002602001018181525050868181518110610a4257610a42610ebd565b60200260200101516020015182826006610a5c9190610f4a565b610a67906001610f02565b81518110610a7757610a77610ebd565b602002602001018181525050858181518110610a9557610a95610ebd565b60209081029190910181015151015182610ab0836006610f4a565b610abb906002610f02565b81518110610acb57610acb610ebd565b602002602001018181525050858181518110610ae957610ae9610ebd565b6020908102919091010151515182610b02836006610f4a565b610b0d906003610f02565b81518110610b1d57610b1d610ebd565b602002602001018181525050858181518110610b3b57610b3b610ebd565b602002602001015160200151600160028110610b5957610b59610ebd565b602002015182610b6a836006610f4a565b610b75906004610f02565b81518110610b8557610b85610ebd565b602002602001018181525050858181518110610ba357610ba3610ebd565b602002602001015160200151600060028110610bc157610bc1610ebd565b602002015182610bd2836006610f4a565b610bdd906005610f02565b81518110610bed57610bed610ebd565b602090810291909101015280610c0281610ee9565b9150506109d5565b50610c13610cfd565b6000602082602086026020860160086107d05a03fa90508080610c3257fe5b5080610c3d57600080fd5b505115159695505050505050565b6040805160e08101909152600060a0820181815260c0830191909152815260208101610c75610cd8565b8152602001610c82610cd8565b8152602001610c8f610cd8565b8152602001606081525090565b60405180606001604052806003906020820280368337509192915050565b60405180608001604052806004906020820280368337509192915050565b6040518060400160405280610ceb610d1b565b8152602001610cf8610d1b565b905290565b60405180602001604052806001906020820280368337509192915050565b60405180604001604052806002906020820280368337509192915050565b634e487b7160e01b600052604160045260246000fd5b6040805190810167ffffffffffffffff81118282101715610d7257610d72610d39565b60405290565b600060408284031215610d8a57600080fd5b610d92610d4f565b9050813581526020820135602082015292915050565b600082601f830112610db957600080fd5b610dc1610d4f565b806040840185811115610dd357600080fd5b845b81811015610ded578035845260209384019301610dd5565b509095945050505050565b600080828403610140811215610e0d57600080fd5b61010080821215610e1d57600080fd5b6040516060810181811067ffffffffffffffff82111715610e4057610e40610d39565b604052610e4d8787610d78565b81526080603f1984011215610e6157600080fd5b610e69610d4f565b9250610e788760408801610da8565b8352610e878760808801610da8565b6020840152826020820152610e9f8760c08801610d78565b60408201529350610eb286868301610da8565b925050509250929050565b634e487b7160e01b600052603260045260246000fd5b634e487b7160e01b600052601160045260246000fd5b600060018201610efb57610efb610ed3565b5060010190565b808201808211156100f0576100f0610ed3565b600082610f3257634e487b7160e01b600052601260045260246000fd5b500690565b818103818111156100f0576100f0610ed3565b80820281158282048414176100f0576100f0610ed356fea2646970667358221220594260535523c662f806a2323c5c3519e0e5a350160b7bf6158f5cbd366ad96764736f6c63430008140033",
  "linkReferences": {},
  "deployedLinkReferences": {}
}