{
  "_format": "hh-sol-artifact-1",
  "contractName": "ZkAssetRegistry",
  "sourceName": "contracts/ZkAssetRegistry.sol",
  "abi": [
    {
      "inputs": [
        {
          "internalType": "address",
          "name": "_verifierAddress",
          "type": "address"
        }
      ],
      "stateMutability": "nonpayable",
      "type": "constructor"
    },
    {
      "anonymous": false,
      "inputs": [
        {
          "indexed": true,
          "internalType": "uint256",
          "name": "itemHash",
          "type": "uint256"
        },
        {
          "indexed": false,
          "internalType": "string",
          "name": "note",
          "type": "string"
        }
      ],
      "name": "ItemRegistered",
      "type": "event"
    },
    {
      "anonymous": false,
      "inputs": [
        {
          "indexed": true,
          "internalType": "address",
          "name": "verifier",
          "type": "address"
        },
        {
          "indexed": false,
          "internalType": "uint256",
          "name": "itemHash",
          "type": "uint256"
        }
      ],
      "name": "ItemVerified",
      "type": "event"
    },
    {
      "inputs": [],
      "name": "owner",
      "outputs": [
        {
          "internalType": "address",
          "name": "",
          "type": "address"
        }
      ],
      "stateMutability": "view",
      "type": "function"
    },
    {
      "inputs": [
        {
          "internalType": "uint256",
          "name": "itemHash",
          "type": "uint256"
        }
      ],
      "name": "registerItem",
      "outputs": [],
      "stateMutability": "nonpayable",
      "type": "function"
    },
    {
      "inputs": [
        {
          "internalType": "uint256",
          "name": "",
          "type": "uint256"
        }
      ],
      "name": "registeredHashes",
      "outputs": [
        {
          "internalType": "bool",
          "name": "",
          "type": "bool"
        }
      ],
      "stateMutability": "view",
      "type": "function"
    },
    {
      "inputs": [],
      "name": "verifier",
      "outputs": [
        {
          "internalType": "contract IVerifier",
          "name": "",
          "type": "address"
        }
      ],
      "stateMutability": "view",
      "type": "function"
    },
    {
      "inputs": [
        {
          "internalType": "uint256[2]",
          "name": "a",
          "type": "uint256[2]"
        },
        {
          "internalType": "uint256[2][2]",
          "name": "b",
          "type": "uint256[2][2]"
        },
        {
          "internalType": "uint256[2]",
          "name": "c",
          "type": "uint256[2]"
        },
        {
          "internalType": "uint256[2]",
          "name": "input",
          "type": "uint256[2]"
        }
      ],
      "name": "verifyAuthenticity",
      "outputs": [
        {
          "internalType": "bool",
          "name": "",
          "type": "bool"
        }
      ],
      "stateMutability": "nonpayable",
      "type": "function"
    }
  ],
  "bytecode": "0x608060405234801561001057600080fd5b5060405161063d38038061063d83398101604081905261002f9161005d565b600080546001600160a01b039092166001600160a01b0319928316179055600180549091163317905561008d565b60006020828403121561006f57600080fd5b81516001600160a01b038116811461008657600080fd5b9392505050565b6105a18061009c6000396000f3fe608060405234801561001057600080fd5b50600436106100575760003560e01c80632b7ac3f31461005c5780632c7424721461008c57806362e7d264146100af5780637c325922146100c45780638da5cb5b146100e7575b600080fd5b60005461006f906001600160a01b031681565b6040516001600160a01b0390911681526020015b60405180910390f35b61009f61009a3660046103e0565b6100fa565b6040519015158152602001610083565b6100c26100bd366004610480565b6102d3565b005b61009f6100d2366004610480565b60026020526000908152604090205460ff1681565b60015461006f906001600160a01b031681565b805160009081526002602052604081205460ff1615156001146101645760405162461bcd60e51b815260206004820152601e60248201527f48617368206e6f6e2074726f7661746f206e656c20526567697374726f21000060448201526064015b60405180910390fd5b6040805160a0810182528651606082019081526020808901516080840152908252825180840184528751815287820151818301528183015282518084018452865181528682015191810191909152818301526000805492516310f35dbf60e21b8152919290916001600160a01b03909116906343cd76fc906101ec90859088906004016104c2565b602060405180830381865afa158015610209573d6000803e3d6000fd5b505050506040513d601f19601f8201168201806040525081019061022d9190610542565b905060018115151461028f5760405162461bcd60e51b815260206004820152602560248201527f50726f6f66205a4b20496e76616c6964613a204d6174656d6174696361206572604482015264726174612160d81b606482015260840161015b565b835160405190815233907f4d084c6e24cdec83f2321c9f231d1eb30cbb3920520c8897da5e627a125e88c99060200160405180910390a25060019695505050505050565b60008181526002602052604090819020805460ff191660011790555181907f0aa7dfcf97fa9c340448d3d0d83e23815f1dacb60048e4a092938c337d0b99a09061034e906020808252601d908201527f50726f646f74746f20617574656e7469636f207265676973747261746f000000604082015260600190565b60405180910390a250565b6040805190810167ffffffffffffffff8111828210171561038a57634e487b7160e01b600052604160045260246000fd5b60405290565b600082601f8301126103a157600080fd5b6103a9610359565b8060408401858111156103bb57600080fd5b845b818110156103d55780358452602093840193016103bd565b509095945050505050565b60008060008061014085870312156103f757600080fd5b6104018686610390565b9350604086605f87011261041457600080fd5b61041c610359565b8060c088018981111561042e57600080fd5b8389015b81811015610453576104448b82610390565b84526020909301928401610432565b508196506104618a82610390565b955050505050610475866101008701610390565b905092959194509250565b60006020828403121561049257600080fd5b5035919050565b8060005b60028110156104bc57815184526020938401939091019060010161049d565b50505050565b8251805182526020908101519082015261014081016020808501516104eb604085018251610499565b8101516104fb6080850182610499565b506040850151805160c08501526020015160e084015261010083018460005b60028110156105375781518352918301919083019060010161051a565b505050509392505050565b60006020828403121561055457600080fd5b8151801515811461056457600080fd5b939250505056fea2646970667358221220e412da18b98f3a50ce6a2612a46039b0857b9e14473f60818b08e143ddbed1ec64736f6c63430008140033",
  "linkReferences": {},
  "deployedLinkReferences": {}
}